{
  "contractName": "Bank",
  "abi": [
    {
      "constant": true,
      "inputs": [
        {
          "internalType": "uint256",
          "name": "",
          "type": "uint256"
        }
      ],
      "name": "guarantees",
      "outputs": [
        {
          "internalType": "address payable",
          "name": "guarantor",
          "type": "address"
        },
        {
          "internalType": "uint256",
          "name": "etherInterest",
          "type": "uint256"
        },
        {
          "internalType": "uint256",
          "name": "loanIndex",
          "type": "uint256"
        },
        {
          "internalType": "bool",
          "name": "_isWaitingForHandling",
          "type": "bool"
        },
        {
          "internalType": "bool",
          "name": "_isGuaranteeExist",
          "type": "bool"
        }
      ],
      "payable": false,
      "stateMutability": "view",
      "type": "function"
    },
    {
      "constant": true,
      "inputs": [],
      "name": "guaranteesCount",
      "outputs": [
        {
          "internalType": "uint256",
          "name": "",
          "type": "uint256"
        }
      ],
      "payable": false,
      "stateMutability": "view",
      "type": "function"
    },
    {
      "constant": true,
      "inputs": [
        {
          "internalType": "uint256",
          "name": "",
          "type": "uint256"
        }
      ],
      "name": "lenders",
      "outputs": [
        {
          "internalType": "address payable",
          "name": "",
          "type": "address"
        }
      ],
      "payable": false,
      "stateMutability": "view",
      "type": "function"
    },
    {
      "constant": true,
      "inputs": [
        {
          "internalType": "uint256",
          "name": "",
          "type": "uint256"
        }
      ],
      "name": "loans",
      "outputs": [
        {
          "internalType": "address payable",
          "name": "loanee",
          "type": "address"
        },
        {
          "internalType": "uint256",
          "name": "etherBorrow",
          "type": "uint256"
        },
        {
          "internalType": "uint256",
          "name": "index",
          "type": "uint256"
        },
        {
          "internalType": "uint256",
          "name": "payBackDate",
          "type": "uint256"
        },
        {
          "internalType": "uint256",
          "name": "etherInterest",
          "type": "uint256"
        },
        {
          "internalType": "bool",
          "name": "_isGuaranteeProvided",
          "type": "bool"
        },
        {
          "internalType": "bool",
          "name": "_isLoanProvided",
          "type": "bool"
        },
        {
          "internalType": "bool",
          "name": "_isLoanExist",
          "type": "bool"
        }
      ],
      "payable": false,
      "stateMutability": "view",
      "type": "function"
    },
    {
      "constant": true,
      "inputs": [],
      "name": "loansCount",
      "outputs": [
        {
          "internalType": "uint256",
          "name": "",
          "type": "uint256"
        }
      ],
      "payable": false,
      "stateMutability": "view",
      "type": "function"
    },
    {
      "constant": false,
      "inputs": [
        {
          "internalType": "uint256",
          "name": "etherBorrow",
          "type": "uint256"
        },
        {
          "internalType": "uint8",
          "name": "payBackDate",
          "type": "uint8"
        },
        {
          "internalType": "uint8",
          "name": "etherInterest",
          "type": "uint8"
        }
      ],
      "name": "requestLoan",
      "outputs": [],
      "payable": false,
      "stateMutability": "nonpayable",
      "type": "function"
    },
    {
      "constant": false,
      "inputs": [
        {
          "internalType": "uint256",
          "name": "index",
          "type": "uint256"
        },
        {
          "internalType": "uint8",
          "name": "guaranteeInterest",
          "type": "uint8"
        }
      ],
      "name": "provideGuarantee",
      "outputs": [],
      "payable": true,
      "stateMutability": "payable",
      "type": "function"
    },
    {
      "constant": false,
      "inputs": [
        {
          "internalType": "uint256",
          "name": "index",
          "type": "uint256"
        },
        {
          "internalType": "bool",
          "name": "isGuaranteeProvided",
          "type": "bool"
        }
      ],
      "name": "handleGuarantee",
      "outputs": [],
      "payable": false,
      "stateMutability": "nonpayable",
      "type": "function"
    },
    {
      "constant": true,
      "inputs": [
        {
          "internalType": "uint256",
          "name": "index",
          "type": "uint256"
        }
      ],
      "name": "getLoansInfo",
      "outputs": [
        {
          "internalType": "uint256",
          "name": "",
          "type": "uint256"
        },
        {
          "internalType": "bool",
          "name": "",
          "type": "bool"
        },
        {
          "internalType": "uint256",
          "name": "",
          "type": "uint256"
        },
        {
          "internalType": "address payable",
          "name": "",
          "type": "address"
        }
      ],
      "payable": false,
      "stateMutability": "view",
      "type": "function"
    },
    {
      "constant": false,
      "inputs": [
        {
          "internalType": "uint256",
          "name": "index",
          "type": "uint256"
        }
      ],
      "name": "provideLoanForLoanee",
      "outputs": [],
      "payable": true,
      "stateMutability": "payable",
      "type": "function"
    },
    {
      "constant": false,
      "inputs": [
        {
          "internalType": "uint256",
          "name": "index",
          "type": "uint256"
        }
      ],
      "name": "isBorrowerTransferEtherAtTime",
      "outputs": [],
      "payable": false,
      "stateMutability": "nonpayable",
      "type": "function"
    },
    {
      "constant": false,
      "inputs": [
        {
          "internalType": "uint256",
          "name": "index",
          "type": "uint256"
        }
      ],
      "name": "payBackLoan",
      "outputs": [],
      "payable": true,
      "stateMutability": "payable",
      "type": "function"
    }
  ],
  "bytecode": "0x608060405260008055600060015534801561001957600080fd5b506129bb806100296000396000f3fe6080604052600436106100a75760003560e01c80639d11ed75116100645780639d11ed75146102b45780639fcd0ac4146102df578063df754f111461030a578063e19c21d1146103a9578063e1ec3c68146103d7578063e1fc585f1461048f576100a7565b806302c338f2146100ac5780634c7f84b714610140578063529871bf1461017b57806354a77738146101b65780636faa8b3f1461020b578063929eea2114610239575b600080fd5b3480156100b857600080fd5b506100e5600480360360208110156100cf57600080fd5b81019080803590602001909291905050506104d6565b60405180858152602001841515151581526020018381526020018273ffffffffffffffffffffffffffffffffffffffff1673ffffffffffffffffffffffffffffffffffffffff16815260200194505050505060405180910390f35b34801561014c57600080fd5b506101796004803603602081101561016357600080fd5b8101908080359060200190929190505050610746565b005b6101b46004803603604081101561019157600080fd5b8101908080359060200190929190803560ff169060200190929190505050610c95565b005b3480156101c257600080fd5b50610209600480360360608110156101d957600080fd5b8101908080359060200190929190803560ff169060200190929190803560ff1690602001909291905050506112ae565b005b6102376004803603602081101561022157600080fd5b8101908080359060200190929190505050611423565b005b34801561024557600080fd5b506102726004803603602081101561025c57600080fd5b8101908080359060200190929190505050611b1e565b604051808273ffffffffffffffffffffffffffffffffffffffff1673ffffffffffffffffffffffffffffffffffffffff16815260200191505060405180910390f35b3480156102c057600080fd5b506102c9611b51565b6040518082815260200191505060405180910390f35b3480156102eb57600080fd5b506102f4611b57565b6040518082815260200191505060405180910390f35b34801561031657600080fd5b506103436004803603602081101561032d57600080fd5b8101908080359060200190929190505050611b5d565b604051808673ffffffffffffffffffffffffffffffffffffffff1673ffffffffffffffffffffffffffffffffffffffff16815260200185815260200184815260200183151515158152602001821515151581526020019550505050505060405180910390f35b6103d5600480360360208110156103bf57600080fd5b8101908080359060200190929190505050611bcd565b005b3480156103e357600080fd5b50610410600480360360208110156103fa57600080fd5b81019080803590602001909291905050506121f4565b604051808973ffffffffffffffffffffffffffffffffffffffff1673ffffffffffffffffffffffffffffffffffffffff1681526020018881526020018781526020018681526020018581526020018415151515815260200183151515158152602001821515151581526020019850505050505050505060405180910390f35b34801561049b57600080fd5b506104d4600480360360408110156104b257600080fd5b8101908080359060200190929190803515159060200190929190505050612283565b005b6000806000803373ffffffffffffffffffffffffffffffffffffffff166004600087815260200190815260200160002060009054906101000a900473ffffffffffffffffffffffffffffffffffffffff1673ffffffffffffffffffffffffffffffffffffffff1614610593576040517f08c379a00000000000000000000000000000000000000000000000000000000081526004018080602001828103825260228152602001806128a96022913960400191505060405180910390fd5b600054851061060a576040517f08c379a00000000000000000000000000000000000000000000000000000000081526004018080602001828103825260198152602001807f5468697320696e64657820646f6573206e6f742065786973740000000000000081525060200191505060405180910390fd5b6002600086815260200190815260200160002060050160029054906101000a900460ff166106a0576040517f08c379a00000000000000000000000000000000000000000000000000000000081526004018080602001828103825260188152602001807f54686973206c6f616e20646f6573206e6f74206578697374000000000000000081525060200191505060405180910390fd5b6000546002600087815260200190815260200160002060050160009054906101000a900460ff1660646002600089815260200190815260200160002060040154600260008a81526020019081526020016000206001015402816106ff57fe5b046003600089815260200190815260200160002060000160009054906101000a900473ffffffffffffffffffffffffffffffffffffffff1693509350935093509193509193565b600073ffffffffffffffffffffffffffffffffffffffff166004600083815260200190815260200160002060009054906101000a900473ffffffffffffffffffffffffffffffffffffffff1673ffffffffffffffffffffffffffffffffffffffff16141561081c576040517f08c379a000000000000000000000000000000000000000000000000000000000815260040180806020018281038252601a8152602001807f4c6f616e20646f65736e277420686176652061206c656e64657200000000000081525060200191505060405180910390fd5b3373ffffffffffffffffffffffffffffffffffffffff166004600083815260200190815260200160002060009054906101000a900473ffffffffffffffffffffffffffffffffffffffff1673ffffffffffffffffffffffffffffffffffffffff16146108f0576040517f08c379a00000000000000000000000000000000000000000000000000000000081526004018080602001828103825260208152602001807f596f7520617265206e6f74206c65616e646572206f662074686973206c6f616e81525060200191505060405180910390fd5b6000548110610967576040517f08c379a00000000000000000000000000000000000000000000000000000000081526004018080602001828103825260198152602001807f5468697320696e64657820646f6573206e6f742065786973740000000000000081525060200191505060405180910390fd5b6002600082815260200190815260200160002060050160019054906101000a900460ff166109e0576040517f08c379a00000000000000000000000000000000000000000000000000000000081526004018080602001828103825260238152602001806128646023913960400191505060405180910390fd5b6002600082815260200190815260200160002060050160029054906101000a900460ff16610a76576040517f08c379a00000000000000000000000000000000000000000000000000000000081526004018080602001828103825260188152602001807f54686973206c6f616e20646f6573206e6f74206578697374000000000000000081525060200191505060405180910390fd5b426201518060026000848152602001908152602001600020600301540211610c92576004600082815260200190815260200160002060009054906101000a900473ffffffffffffffffffffffffffffffffffffffff1673ffffffffffffffffffffffffffffffffffffffff166108fc60026000848152602001908152602001600020600101549081150290604051600060405180830381858888f19350505050158015610b27573d6000803e3d6000fd5b5060026000828152602001908152602001600020600080820160006101000a81549073ffffffffffffffffffffffffffffffffffffffff021916905560018201600090556002820160009055600382016000905560048201600090556005820160006101000a81549060ff02191690556005820160016101000a81549060ff02191690556005820160026101000a81549060ff0219169055505060008081548092919060019003919050555060036000828152602001908152602001600020600080820160006101000a81549073ffffffffffffffffffffffffffffffffffffffff0219169055600182016000905560028201600090556003820160006101000a81549060ff02191690556003820160016101000a81549060ff02191690555050600160008154809291906001900391905055506004600082815260200190815260200160002060006101000a81549073ffffffffffffffffffffffffffffffffffffffff02191690555b50565b6000548210610d0c576040517f08c379a00000000000000000000000000000000000000000000000000000000081526004018080602001828103825260198152602001807f5468697320696e64657820646f6573206e6f742065786973740000000000000081525060200191505060405180910390fd5b3373ffffffffffffffffffffffffffffffffffffffff166002600084815260200190815260200160002060000160009054906101000a900473ffffffffffffffffffffffffffffffffffffffff1673ffffffffffffffffffffffffffffffffffffffff161415610dc7576040517f08c379a00000000000000000000000000000000000000000000000000000000081526004018080602001828103825260318152602001806128126031913960400191505060405180910390fd5b3373ffffffffffffffffffffffffffffffffffffffff166004600084815260200190815260200160002060009054906101000a900473ffffffffffffffffffffffffffffffffffffffff1673ffffffffffffffffffffffffffffffffffffffff161415610e7f576040517f08c379a000000000000000000000000000000000000000000000000000000000815260040180806020018281038252602f8152602001806127e3602f913960400191505060405180910390fd5b6002600083815260200190815260200160002060050160009054906101000a900460ff1615610ef9576040517f08c379a00000000000000000000000000000000000000000000000000000000081526004018080602001828103825260218152602001806128436021913960400191505060405180910390fd5b6000546001541080610f2c57506003600083815260200190815260200160002060030160009054906101000a900460ff16155b610f81576040517f08c379a00000000000000000000000000000000000000000000000000000000081526004018080602001828103825260378152602001806129256037913960400191505060405180910390fd5b60008160ff1611610ffa576040517f08c379a00000000000000000000000000000000000000000000000000000000081526004018080602001828103825260108152602001807f546f6f206c6f7720696e7465726573740000000000000000000000000000000081525060200191505060405180910390fd5b60026000838152602001908152602001600020600101543414611068576040517f08c379a00000000000000000000000000000000000000000000000000000000081526004018080602001828103825260318152602001806128cb6031913960400191505060405180910390fd5b6002600083815260200190815260200160002060050160029054906101000a900460ff166110fe576040517f08c379a00000000000000000000000000000000000000000000000000000000081526004018080602001828103825260188152602001807f54686973206c6f616e20646f6573206e6f74206578697374000000000000000081525060200191505060405180910390fd5b6003600083815260200190815260200160002060030160019054906101000a900460ff1615611195576040517f08c379a00000000000000000000000000000000000000000000000000000000081526004018080602001828103825260198152602001807f546869732067756172616e74656520646f65732065786973740000000000000081525060200191505060405180910390fd5b61119d612738565b6040518060a001604052803373ffffffffffffffffffffffffffffffffffffffff1681526020018360ff168152602001848152602001600115158152602001600115158152509050806003600085815260200190815260200160002060008201518160000160006101000a81548173ffffffffffffffffffffffffffffffffffffffff021916908373ffffffffffffffffffffffffffffffffffffffff160217905550602082015181600101556040820151816002015560608201518160030160006101000a81548160ff02191690831515021790555060808201518160030160016101000a81548160ff021916908315150217905550905050600160008154809291906001019190505550505050565b6112b6612781565b6040518061010001604052803373ffffffffffffffffffffffffffffffffffffffff1681526020018581526020016000548152602001620151808560ff160262ffffff16420181526020018360ff16815260200160001515815260200160001515815260200160011515815250905080600260008054815260200190815260200160002060008201518160000160006101000a81548173ffffffffffffffffffffffffffffffffffffffff021916908373ffffffffffffffffffffffffffffffffffffffff1602179055506020820151816001015560408201518160020155606082015181600301556080820151816004015560a08201518160050160006101000a81548160ff02191690831515021790555060c08201518160050160016101000a81548160ff02191690831515021790555060e08201518160050160026101000a81548160ff021916908315150217905550905050600080815480929190600101919050555050505050565b600054811061149a576040517f08c379a00000000000000000000000000000000000000000000000000000000081526004018080602001828103825260198152602001807f5468697320696e64657820646f6573206e6f742065786973740000000000000081525060200191505060405180910390fd5b3373ffffffffffffffffffffffffffffffffffffffff166002600083815260200190815260200160002060000160009054906101000a900473ffffffffffffffffffffffffffffffffffffffff1673ffffffffffffffffffffffffffffffffffffffff1614611571576040517f08c379a00000000000000000000000000000000000000000000000000000000081526004018080602001828103825260158152602001807f54686973206973206e6f7420796f7572206c6f616e000000000000000000000081525060200191505060405180910390fd5b6002600082815260200190815260200160002060050160019054906101000a900460ff16611607576040517f08c379a000000000000000000000000000000000000000000000000000000000815260040180806020018281038252601a8152602001807f54686973206c6f616e20776173206e6f742070726f766964656400000000000081525060200191505060405180910390fd5b6002600082815260200190815260200160002060050160029054906101000a900460ff1661169d576040517f08c379a00000000000000000000000000000000000000000000000000000000081526004018080602001828103825260188152602001807f54686973206c6f616e20646f6573206e6f74206578697374000000000000000081525060200191505060405180910390fd5b6003600082815260200190815260200160002060030160019054906101000a900460ff16611733576040517f08c379a000000000000000000000000000000000000000000000000000000000815260040180806020018281038252601d8152602001807f546869732067756172616e74656520646f6573206e6f7420657869737400000081525060200191505060405180910390fd5b6000606460026000848152602001908152602001600020600401546002600085815260200190815260200160002060010154028161176d57fe5b0460646003600085815260200190815260200160002060010154600260008681526020019081526020016000206001015402816117a657fe5b0460026000858152602001908152602001600020600101540101905080341461181a576040517f08c379a000000000000000000000000000000000000000000000000000000000815260040180806020018281038252602b81526020018061295c602b913960400191505060405180910390fd5b6003600083815260200190815260200160002060000160009054906101000a900473ffffffffffffffffffffffffffffffffffffffff1673ffffffffffffffffffffffffffffffffffffffff166108fc60646003600086815260200190815260200160002060010154600260008781526020019081526020016000206001015402816118a257fe5b046002600086815260200190815260200160002060010154019081150290604051600060405180830381858888f193505050501580156118e6573d6000803e3d6000fd5b506004600083815260200190815260200160002060009054906101000a900473ffffffffffffffffffffffffffffffffffffffff1673ffffffffffffffffffffffffffffffffffffffff166108fc606460026000868152602001908152602001600020600401546002600087815260200190815260200160002060010154028161196c57fe5b046002600086815260200190815260200160002060010154019081150290604051600060405180830381858888f193505050501580156119b0573d6000803e3d6000fd5b5060026000838152602001908152602001600020600080820160006101000a81549073ffffffffffffffffffffffffffffffffffffffff021916905560018201600090556002820160009055600382016000905560048201600090556005820160006101000a81549060ff02191690556005820160016101000a81549060ff02191690556005820160026101000a81549060ff0219169055505060008081548092919060019003919050555060036000838152602001908152602001600020600080820160006101000a81549073ffffffffffffffffffffffffffffffffffffffff0219169055600182016000905560028201600090556003820160006101000a81549060ff02191690556003820160016101000a81549060ff02191690555050600160008154809291906001900391905055506004600083815260200190815260200160002060006101000a81549073ffffffffffffffffffffffffffffffffffffffff02191690555050565b60046020528060005260406000206000915054906101000a900473ffffffffffffffffffffffffffffffffffffffff1681565b60005481565b60015481565b60036020528060005260406000206000915090508060000160009054906101000a900473ffffffffffffffffffffffffffffffffffffffff16908060010154908060020154908060030160009054906101000a900460ff16908060030160019054906101000a900460ff16905085565b600073ffffffffffffffffffffffffffffffffffffffff166004600083815260200190815260200160002060009054906101000a900473ffffffffffffffffffffffffffffffffffffffff1673ffffffffffffffffffffffffffffffffffffffff1614611c85576040517f08c379a00000000000000000000000000000000000000000000000000000000081526004018080602001828103825260298152602001806128fc6029913960400191505060405180910390fd5b3373ffffffffffffffffffffffffffffffffffffffff166002600083815260200190815260200160002060000160009054906101000a900473ffffffffffffffffffffffffffffffffffffffff1673ffffffffffffffffffffffffffffffffffffffff161415611d5d576040517f08c379a00000000000000000000000000000000000000000000000000000000081526004018080602001828103825260148152602001807f596f7520617265206e6f742061206c656e64657200000000000000000000000081525060200191505060405180910390fd5b3373ffffffffffffffffffffffffffffffffffffffff166003600083815260200190815260200160002060000160009054906101000a900473ffffffffffffffffffffffffffffffffffffffff1673ffffffffffffffffffffffffffffffffffffffff161415611e35576040517f08c379a00000000000000000000000000000000000000000000000000000000081526004018080602001828103825260148152602001807f596f7520617265206e6f742061206c656e64657200000000000000000000000081525060200191505060405180910390fd5b6000548110611eac576040517f08c379a00000000000000000000000000000000000000000000000000000000081526004018080602001828103825260198152602001807f5468697320696e64657820646f6573206e6f742065786973740000000000000081525060200191505060405180910390fd5b6002600082815260200190815260200160002060050160009054906101000a900460ff16611f25576040517f08c379a00000000000000000000000000000000000000000000000000000000081526004018080602001828103825260228152602001806128876022913960400191505060405180910390fd5b6002600082815260200190815260200160002060050160019054906101000a900460ff1615611fbc576040517f08c379a000000000000000000000000000000000000000000000000000000000815260040180806020018281038252601d8152602001807f54686973206c6f616e20697320616c72656164792070726f766964656400000081525060200191505060405180910390fd5b6002600082815260200190815260200160002060050160029054906101000a900460ff16612052576040517f08c379a00000000000000000000000000000000000000000000000000000000081526004018080602001828103825260188152602001807f54686973206c6f616e20646f6573206e6f74206578697374000000000000000081525060200191505060405180910390fd5b600260008281526020019081526020016000206001015434146120dd576040517f08c379a000000000000000000000000000000000000000000000000000000000815260040180806020018281038252601b8152602001807f596f7520646f6e2774206861766520656e6f756768206574686572000000000081525060200191505060405180910390fd5b6002600082815260200190815260200160002060000160009054906101000a900473ffffffffffffffffffffffffffffffffffffffff1673ffffffffffffffffffffffffffffffffffffffff166108fc60026000848152602001908152602001600020600101549081150290604051600060405180830381858888f1935050505015801561216f573d6000803e3d6000fd5b5060016002600083815260200190815260200160002060050160016101000a81548160ff021916908315150217905550336004600083815260200190815260200160002060006101000a81548173ffffffffffffffffffffffffffffffffffffffff021916908373ffffffffffffffffffffffffffffffffffffffff16021790555050565b60026020528060005260406000206000915090508060000160009054906101000a900473ffffffffffffffffffffffffffffffffffffffff16908060010154908060020154908060030154908060040154908060050160009054906101000a900460ff16908060050160019054906101000a900460ff16908060050160029054906101000a900460ff16905088565b60005482106122fa576040517f08c379a00000000000000000000000000000000000000000000000000000000081526004018080602001828103825260198152602001807f5468697320696e64657820646f6573206e6f742065786973740000000000000081525060200191505060405180910390fd5b3373ffffffffffffffffffffffffffffffffffffffff166002600084815260200190815260200160002060000160009054906101000a900473ffffffffffffffffffffffffffffffffffffffff1673ffffffffffffffffffffffffffffffffffffffff16146123d1576040517f08c379a00000000000000000000000000000000000000000000000000000000081526004018080602001828103825260158152602001807f54686973206973206e6f7420796f7572206c6f616e000000000000000000000081525060200191505060405180910390fd5b6003600083815260200190815260200160002060030160019054906101000a900460ff16612467576040517f08c379a000000000000000000000000000000000000000000000000000000000815260040180806020018281038252601d8152602001807f546869732067756172616e74656520646f6573206e6f7420657869737400000081525060200191505060405180910390fd5b6003600083815260200190815260200160002060030160009054906101000a900460ff166124fd576040517f08c379a000000000000000000000000000000000000000000000000000000000815260040180806020018281038252601b8152602001807f47756172616e74656520616c72656164792070726f636573736564000000000081525060200191505060405180910390fd5b6002600083815260200190815260200160002060050160029054906101000a900460ff16612593576040517f08c379a00000000000000000000000000000000000000000000000000000000081526004018080602001828103825260188152602001807f54686973206c6f616e20646f6573206e6f74206578697374000000000000000081525060200191505060405180910390fd5b806002600084815260200190815260200160002060050160006101000a81548160ff02191690831515021790555060006003600084815260200190815260200160002060030160006101000a81548160ff0219169083151502179055506002600083815260200190815260200160002060050160009054906101000a900460ff16612734576003600083815260200190815260200160002060000160009054906101000a900473ffffffffffffffffffffffffffffffffffffffff1673ffffffffffffffffffffffffffffffffffffffff166108fc60026000858152602001908152602001600020600101549081150290604051600060405180830381858888f193505050501580156126aa573d6000803e3d6000fd5b5060036000838152602001908152602001600020600080820160006101000a81549073ffffffffffffffffffffffffffffffffffffffff0219169055600182016000905560028201600090556003820160006101000a81549060ff02191690556003820160016101000a81549060ff02191690555050600160008154809291906001900391905055505b5050565b6040518060a00160405280600073ffffffffffffffffffffffffffffffffffffffff16815260200160008152602001600081526020016000151581526020016000151581525090565b604051806101000160405280600073ffffffffffffffffffffffffffffffffffffffff16815260200160008152602001600081526020016000815260200160008152602001600015158152602001600015158152602001600015158152509056fe546865206c656e6465722063616e27742070726f766964652067756172616e74656520666f7220746865206c6f616e54686520626f72726f7765722063616e27742070726f7669646520612067756172616e74656520746f2068696d73656c6654686973206c6f616e20616c72656164792068617320612067756172616e74656554686973206c6f616e20686173206e6f7420796574206265656e2070726f766964656454686973206c6f616e20646f65736e2774206861766520612067756172616e746565596f7520617265206e6f742061206c65616e646572206f662074686973206c6f616e596f7520646f6e2774206861766520656e6f7567682065617468657220746f2070726f766964652067756172616e746565546865206c656e64657220666f722074686973206c6f616e20697320616c7265616479206578697374546869732067756172616e74656520616c72656164792077616974696e6720666f722068616e646c696e67206f6620626f72726f776572596f752073686f756c6420746f20706179206261636b20616d6f756e74207769746820696e746572657374a265627a7a72315820603848ac146a0075c0ad44bc90ea17f512b43ea642fd365f81da99c62d64ac0964736f6c634300050c0032",
  "source": "pragma solidity ^0.5.8;\n \ncontract Bank {\n    uint public loansCount = 0;\n    uint public guaranteesCount = 0;\n    mapping (uint => Loan) public loans;\n    mapping (uint => Guarantee) public guarantees;\n    mapping (uint => address payable) public lenders;\n    \n    struct Loan {\n        address payable loanee;\n        uint etherBorrow;\n        uint index;\n        uint payBackDate;\n        uint etherInterest;\n        bool _isGuaranteeProvided;\n        bool _isLoanProvided;\n        bool _isLoanExist;\n    }\n    \n    struct Guarantee {\n        address payable guarantor;\n        uint etherInterest;\n        uint loanIndex;\n        bool _isWaitingForHandling;\n        bool _isGuaranteeExist;\n    }\n    \n    function requestLoan(uint etherBorrow, uint8 payBackDate, uint8 etherInterest) public\n    {\n        Loan memory loan = Loan({loanee: msg.sender, index: loansCount, etherBorrow: etherBorrow,\n                                        payBackDate: now + (payBackDate * 1 days), etherInterest: etherInterest,\n                                        _isGuaranteeProvided: false, _isLoanProvided: false, _isLoanExist: true});\n        loans[loansCount] = loan;\n        loansCount++;\n    }\n    \n    function provideGuarantee(uint index, uint8 guaranteeInterest) public payable // payable means that value should have ether\n    {\n        require(\n            index < loansCount,\n            \"This index does not exist\");\n            \n        require(loans[index].loanee != msg.sender,\n                \"The borrower can't provide a guarantee to himself\");\n                \n        require(lenders[index] != msg.sender,\n                \"The lender can't provide guarantee for the loan\");\n                \n        require(!loans[index]._isGuaranteeProvided, \n            \"This loan already has a guarantee\");\n            \n        require(guaranteesCount < loansCount || !guarantees[index]._isWaitingForHandling, \n            \"This guarantee already waiting for handling of borrower\");\n        \n        require(guaranteeInterest > 0, \n                \"Too low interest\");\n            \n        require(\n            msg.value == loans[index].etherBorrow,\n            \"You don't have enough eather to provide guarantee\");\n            \n        require(\n            loans[index]._isLoanExist,\n            \"This loan does not exist\");\n            \n        require(\n            !guarantees[index]._isGuaranteeExist,\n            \"This guarantee does exist\");\n            \n        Guarantee memory guarantee = Guarantee({guarantor: msg.sender, etherInterest: guaranteeInterest,\n                                                    loanIndex: index, _isWaitingForHandling: true, _isGuaranteeExist: true});\n        guarantees[index] = guarantee;\n        guaranteesCount++;\n    }\n    \n    function handleGuarantee(uint index, bool isGuaranteeProvided) public\n    {\n        require(\n            index < loansCount,\n            \"This index does not exist\");\n            \n        require(loans[index].loanee == msg.sender, \n            \"This is not your loan\");\n            \n        require(\n            guarantees[index]._isGuaranteeExist,\n            \"This guarantee does not exist\");\n            \n        require(guarantees[index]._isWaitingForHandling,\n            \"Guarantee already processed\");\n            \n        require(\n            loans[index]._isLoanExist,\n            \"This loan does not exist\");\n            \n        loans[index]._isGuaranteeProvided = isGuaranteeProvided;\n        guarantees[index]._isWaitingForHandling = false;\n        \n        if(!loans[index]._isGuaranteeProvided){\n            guarantees[index].guarantor.transfer(loans[index].etherBorrow); // transfer eather from smart contract to guarantor back\n            delete guarantees[index];\n            guaranteesCount--;\n        }\n    }\n    \n    function getLoansInfo(uint index) public view returns(uint, bool, uint, address payable) {\n        require(\n            lenders[index] == msg.sender,\n            \"You are not a leander of this loan\");\n            \n        require(\n            index < loansCount,\n            \"This index does not exist\");\n            \n        require(\n            loans[index]._isLoanExist,\n            \"This loan does not exist\");\n            \n       return(loansCount,   // count of loans\n                loans[index]._isGuaranteeProvided, // was the guarantee provided\n                loans[index].etherBorrow * loans[index].etherInterest / 100,    // interest of loan, which should receive lender in ether\n                guarantees[index].guarantor);   //  address of guarantor\n    }\n    \n    function provideLoanForLoanee(uint index) public payable\n    {\n        require(\n            lenders[index] == address(0),\n            \"The lender for this loan is already exist\");\n            \n        require(\n            loans[index].loanee != msg.sender,\n            \"You are not a lender\");\n            \n        require(\n            guarantees[index].guarantor != msg.sender,\n            \"You are not a lender\");\n            \n        require(\n            index < loansCount,\n            \"This index does not exist\");\n            \n        require(\n            loans[index]._isGuaranteeProvided,\n            \"This loan doesn't have a guarantee\");\n            \n        require(\n            !loans[index]._isLoanProvided,\n            \"This loan is already provided\");\n            \n        require(\n            loans[index]._isLoanExist,\n            \"This loan does not exist\");\n            \n        require(\n            msg.value == loans[index].etherBorrow,\n            \"You don't have enough ether\");\n            \n        loans[index].loanee.transfer(loans[index].etherBorrow); // transfer eather from lender to loanee\n        loans[index]._isLoanProvided = true;\n        lenders[index] = msg.sender;\n    }\n\n    function isBorrowerTransferEtherAtTime(uint index) public \n    {\n        require(\n            lenders[index] != address(0),\n            \"Loan doesn't have a lender\");\n        \n        require(\n            lenders[index] == msg.sender,\n            \"You are not leander of this loan\");\n            \n        require(\n            index < loansCount,\n            \"This index does not exist\");\n            \n        require(\n            loans[index]._isLoanProvided,\n            \"This loan has not yet been provided\");\n            \n        require(\n            loans[index]._isLoanExist,\n            \"This loan does not exist\");\n            \n        // if should be executed, when borrower doesn't provide ether and interest at time\n        if(loans[index].payBackDate * 1 days <= now){\n            // lender receive back his ether(this amount from smart contract, which was locked)\n            lenders[index].transfer(loans[index].etherBorrow); \n        \n            // remove the loan\n            delete loans[index];\n            loansCount--;\n        \n            // remove the guarantee\n            delete guarantees[index];\n            guaranteesCount--;\n            \n            // remove the lender\n            delete lenders[index];\n        }\n    }\n    \n    function payBackLoan(uint index) public payable {\n        require(\n            index < loansCount,\n            \"This index does not exist\");\n            \n        require(loans[index].loanee == msg.sender, \n            \"This is not your loan\");\n            \n        require(\n            loans[index]._isLoanProvided,\n            \"This loan was not provided\");\n            \n        require(\n            loans[index]._isLoanExist,\n            \"This loan does not exist\");\n            \n        require(\n            guarantees[index]._isGuaranteeExist,\n            \"This guarantee does not exist\");\n            \n        uint amount = (loans[index].etherBorrow + loans[index].etherBorrow * guarantees[index].etherInterest / 100) +\n                            (loans[index].etherBorrow * loans[index].etherInterest / 100);\n        \n        require(\n            msg.value == amount, // amount => guarantor interest + lender interest\n            \"You should to pay back amount with interest\");\n            \n        // transfer ether with interest from smart contract to guarantor back\n        guarantees[index].guarantor.transfer(loans[index].etherBorrow + loans[index].etherBorrow * guarantees[index].etherInterest / 100);\n        \n        // transfer ether with interest from smart contract to lender\n        lenders[index].transfer(loans[index].etherBorrow + loans[index].etherBorrow * loans[index].etherInterest / 100);\n        \n        // remove the loan\n        delete loans[index];\n        loansCount--;\n        \n        // remove the guarantee\n        delete guarantees[index];\n        guaranteesCount--;\n        \n        // remove the lender\n        delete lenders[index];\n    }\n}",
  "sourcePath": "/home/taranchik/Public/My Files/Studies/5 semeter/Blockchain and Smart Contracts/assignment/problem-03/contracts/Bank.sol",
  "compiler": {
    "name": "solc",
    "version": "0.5.12+commit.7709ece9.Emscripten.clang"
  },
  "schemaVersion": "3.0.20",
  "updatedAt": "2020-01-18T21:45:54.529Z",
  "devdoc": {
    "methods": {}
  },
  "userdoc": {
    "methods": {}
  }
}